{
  "contractName": "DAppToken",
  "abi": [
    {
      "inputs": [],
      "stateMutability": "nonpayable",
      "type": "constructor"
    },
    {
      "anonymous": false,
      "inputs": [
        {
          "indexed": true,
          "internalType": "address",
          "name": "owner",
          "type": "address"
        },
        {
          "indexed": true,
          "internalType": "address",
          "name": "spender",
          "type": "address"
        },
        {
          "indexed": false,
          "internalType": "uint256",
          "name": "value",
          "type": "uint256"
        }
      ],
      "name": "Approval",
      "type": "event"
    },
    {
      "anonymous": false,
      "inputs": [
        {
          "indexed": false,
          "internalType": "address",
          "name": "_oldMinter",
          "type": "address"
        },
        {
          "indexed": false,
          "internalType": "address",
          "name": "_newMinter",
          "type": "address"
        }
      ],
      "name": "MinterChanged",
      "type": "event"
    },
    {
      "anonymous": false,
      "inputs": [
        {
          "indexed": false,
          "internalType": "address",
          "name": "_oldOwner",
          "type": "address"
        },
        {
          "indexed": false,
          "internalType": "address",
          "name": "_newOwner",
          "type": "address"
        }
      ],
      "name": "OwnerChanged",
      "type": "event"
    },
    {
      "anonymous": false,
      "inputs": [
        {
          "indexed": false,
          "internalType": "address",
          "name": "_oldOwner",
          "type": "address"
        }
      ],
      "name": "OwnershipReleased",
      "type": "event"
    },
    {
      "anonymous": false,
      "inputs": [
        {
          "indexed": true,
          "internalType": "address",
          "name": "from",
          "type": "address"
        },
        {
          "indexed": true,
          "internalType": "address",
          "name": "to",
          "type": "address"
        },
        {
          "indexed": false,
          "internalType": "uint256",
          "name": "value",
          "type": "uint256"
        }
      ],
      "name": "Transfer",
      "type": "event"
    },
    {
      "inputs": [
        {
          "internalType": "address",
          "name": "owner",
          "type": "address"
        },
        {
          "internalType": "address",
          "name": "spender",
          "type": "address"
        }
      ],
      "name": "allowance",
      "outputs": [
        {
          "internalType": "uint256",
          "name": "",
          "type": "uint256"
        }
      ],
      "stateMutability": "view",
      "type": "function",
      "constant": true
    },
    {
      "inputs": [
        {
          "internalType": "address",
          "name": "spender",
          "type": "address"
        },
        {
          "internalType": "uint256",
          "name": "amount",
          "type": "uint256"
        }
      ],
      "name": "approve",
      "outputs": [
        {
          "internalType": "bool",
          "name": "",
          "type": "bool"
        }
      ],
      "stateMutability": "nonpayable",
      "type": "function"
    },
    {
      "inputs": [
        {
          "internalType": "address",
          "name": "account",
          "type": "address"
        }
      ],
      "name": "balanceOf",
      "outputs": [
        {
          "internalType": "uint256",
          "name": "",
          "type": "uint256"
        }
      ],
      "stateMutability": "view",
      "type": "function",
      "constant": true
    },
    {
      "inputs": [],
      "name": "decimals",
      "outputs": [
        {
          "internalType": "uint8",
          "name": "",
          "type": "uint8"
        }
      ],
      "stateMutability": "view",
      "type": "function",
      "constant": true
    },
    {
      "inputs": [
        {
          "internalType": "address",
          "name": "spender",
          "type": "address"
        },
        {
          "internalType": "uint256",
          "name": "subtractedValue",
          "type": "uint256"
        }
      ],
      "name": "decreaseAllowance",
      "outputs": [
        {
          "internalType": "bool",
          "name": "",
          "type": "bool"
        }
      ],
      "stateMutability": "nonpayable",
      "type": "function"
    },
    {
      "inputs": [
        {
          "internalType": "address",
          "name": "spender",
          "type": "address"
        },
        {
          "internalType": "uint256",
          "name": "addedValue",
          "type": "uint256"
        }
      ],
      "name": "increaseAllowance",
      "outputs": [
        {
          "internalType": "bool",
          "name": "",
          "type": "bool"
        }
      ],
      "stateMutability": "nonpayable",
      "type": "function"
    },
    {
      "inputs": [],
      "name": "name",
      "outputs": [
        {
          "internalType": "string",
          "name": "",
          "type": "string"
        }
      ],
      "stateMutability": "view",
      "type": "function",
      "constant": true
    },
    {
      "inputs": [],
      "name": "owner",
      "outputs": [
        {
          "internalType": "address",
          "name": "",
          "type": "address"
        }
      ],
      "stateMutability": "view",
      "type": "function",
      "constant": true
    },
    {
      "inputs": [],
      "name": "symbol",
      "outputs": [
        {
          "internalType": "string",
          "name": "",
          "type": "string"
        }
      ],
      "stateMutability": "view",
      "type": "function",
      "constant": true
    },
    {
      "inputs": [],
      "name": "totalSupply",
      "outputs": [
        {
          "internalType": "uint256",
          "name": "",
          "type": "uint256"
        }
      ],
      "stateMutability": "view",
      "type": "function",
      "constant": true
    },
    {
      "inputs": [
        {
          "internalType": "address",
          "name": "recipient",
          "type": "address"
        },
        {
          "internalType": "uint256",
          "name": "amount",
          "type": "uint256"
        }
      ],
      "name": "transfer",
      "outputs": [
        {
          "internalType": "bool",
          "name": "",
          "type": "bool"
        }
      ],
      "stateMutability": "nonpayable",
      "type": "function"
    },
    {
      "inputs": [
        {
          "internalType": "address",
          "name": "sender",
          "type": "address"
        },
        {
          "internalType": "address",
          "name": "recipient",
          "type": "address"
        },
        {
          "internalType": "uint256",
          "name": "amount",
          "type": "uint256"
        }
      ],
      "name": "transferFrom",
      "outputs": [
        {
          "internalType": "bool",
          "name": "",
          "type": "bool"
        }
      ],
      "stateMutability": "nonpayable",
      "type": "function"
    },
    {
      "inputs": [
        {
          "internalType": "address",
          "name": "_newMinter",
          "type": "address"
        }
      ],
      "name": "passMinterRole",
      "outputs": [
        {
          "internalType": "bool",
          "name": "",
          "type": "bool"
        }
      ],
      "stateMutability": "nonpayable",
      "type": "function"
    },
    {
      "inputs": [
        {
          "internalType": "address",
          "name": "_newOwner",
          "type": "address"
        }
      ],
      "name": "passOwnership",
      "outputs": [
        {
          "internalType": "bool",
          "name": "",
          "type": "bool"
        }
      ],
      "stateMutability": "nonpayable",
      "type": "function"
    },
    {
      "inputs": [],
      "name": "releaseOwnership",
      "outputs": [
        {
          "internalType": "bool",
          "name": "",
          "type": "bool"
        }
      ],
      "stateMutability": "nonpayable",
      "type": "function"
    },
    {
      "inputs": [
        {
          "internalType": "address",
          "name": "_account",
          "type": "address"
        },
        {
          "internalType": "uint256",
          "name": "_amount",
          "type": "uint256"
        }
      ],
      "name": "mint",
      "outputs": [],
      "stateMutability": "nonpayable",
      "type": "function"
    }
  ],
  "bytecode": "0x60806040523480156200001157600080fd5b506040518060400160405280600981526020017f44417070546f6b656e00000000000000000000000000000000000000000000008152506040518060400160405280600381526020017f44415000000000000000000000000000000000000000000000000000000000008152508160039080519060200190620000969291906200013a565b508060049080519060200190620000af9291906200013a565b50505033600560006101000a81548173ffffffffffffffffffffffffffffffffffffffff021916908373ffffffffffffffffffffffffffffffffffffffff16021790555033600660006101000a81548173ffffffffffffffffffffffffffffffffffffffff021916908373ffffffffffffffffffffffffffffffffffffffff1602179055506200024f565b8280546200014890620001ea565b90600052602060002090601f0160209004810192826200016c5760008555620001b8565b82601f106200018757805160ff1916838001178555620001b8565b82800160010185558215620001b8579182015b82811115620001b75782518255916020019190600101906200019a565b5b509050620001c79190620001cb565b5090565b5b80821115620001e6576000816000905550600101620001cc565b5090565b600060028204905060018216806200020357607f821691505b602082108114156200021a576200021962000220565b5b50919050565b7f4e487b7100000000000000000000000000000000000000000000000000000000600052602260045260246000fd5b611d58806200025f6000396000f3fe608060405234801561001057600080fd5b50600436106101005760003560e01c806370a0823111610097578063a9059cbb11610066578063a9059cbb146102d7578063d7fc5b1514610307578063d85633ec14610337578063dd62ed3e1461035557610100565b806370a082311461023b5780638da5cb5b1461026b57806395d89b4114610289578063a457c2d7146102a757610100565b8063313ce567116100d3578063313ce567146101a157806339509351146101bf57806340c10f19146101ef578063620996df1461020b57610100565b806306fdde0314610105578063095ea7b31461012357806318160ddd1461015357806323b872dd14610171575b600080fd5b61010d610385565b60405161011a9190611683565b60405180910390f35b61013d600480360381019061013891906113ee565b610417565b60405161014a9190611668565b60405180910390f35b61015b610435565b6040516101689190611805565b60405180910390f35b61018b6004803603810190610186919061139b565b61043f565b6040516101989190611668565b60405180910390f35b6101a9610537565b6040516101b69190611820565b60405180910390f35b6101d960048036038101906101d491906113ee565b610540565b6040516101e69190611668565b60405180910390f35b610209600480360381019061020491906113ee565b6105ec565b005b6102256004803603810190610220919061132e565b61068a565b6040516102329190611668565b60405180910390f35b6102556004803603810190610250919061132e565b610811565b6040516102629190611805565b60405180910390f35b610273610859565b6040516102809190611624565b60405180910390f35b61029161087f565b60405161029e9190611683565b60405180910390f35b6102c160048036038101906102bc91906113ee565b610911565b6040516102ce9190611668565b60405180910390f35b6102f160048036038101906102ec91906113ee565b6109fc565b6040516102fe9190611668565b60405180910390f35b610321600480360381019061031c919061132e565b610a1a565b60405161032e9190611668565b60405180910390f35b61033f610b69565b60405161034c9190611668565b60405180910390f35b61036f600480360381019061036a919061135b565b610c7b565b60405161037c9190611805565b60405180910390f35b60606003805461039490611935565b80601f01602080910402602001604051908101604052809291908181526020018280546103c090611935565b801561040d5780601f106103e25761010080835404028352916020019161040d565b820191906000526020600020905b8154815290600101906020018083116103f057829003601f168201915b5050505050905090565b600061042b610424610d02565b8484610d0a565b6001905092915050565b6000600254905090565b600061044c848484610ed5565b6000600160008673ffffffffffffffffffffffffffffffffffffffff1673ffffffffffffffffffffffffffffffffffffffff1681526020019081526020016000206000610497610d02565b73ffffffffffffffffffffffffffffffffffffffff1673ffffffffffffffffffffffffffffffffffffffff16815260200190815260200160002054905082811015610517576040517f08c379a000000000000000000000000000000000000000000000000000000000815260040161050e90611765565b60405180910390fd5b61052b85610523610d02565b858403610d0a565b60019150509392505050565b60006012905090565b60006105e261054d610d02565b84846001600061055b610d02565b73ffffffffffffffffffffffffffffffffffffffff1673ffffffffffffffffffffffffffffffffffffffff16815260200190815260200160002060008873ffffffffffffffffffffffffffffffffffffffff1673ffffffffffffffffffffffffffffffffffffffff168152602001908152602001600020546105dd9190611857565b610d0a565b6001905092915050565b600660009054906101000a900473ffffffffffffffffffffffffffffffffffffffff1673ffffffffffffffffffffffffffffffffffffffff163373ffffffffffffffffffffffffffffffffffffffff161461067c576040517f08c379a000000000000000000000000000000000000000000000000000000000815260040161067390611705565b60405180910390fd5b6106868282611156565b5050565b60003373ffffffffffffffffffffffffffffffffffffffff16600560009054906101000a900473ffffffffffffffffffffffffffffffffffffffff1673ffffffffffffffffffffffffffffffffffffffff161461071c576040517f08c379a0000000000000000000000000000000000000000000000000000000008152600401610713906116c5565b60405180910390fd5b81600073ffffffffffffffffffffffffffffffffffffffff168173ffffffffffffffffffffffffffffffffffffffff16141561078d576040517f08c379a000000000000000000000000000000000000000000000000000000000815260040161078490611745565b60405180910390fd5b82600560006101000a81548173ffffffffffffffffffffffffffffffffffffffff021916908373ffffffffffffffffffffffffffffffffffffffff1602179055507fb532073b38c83145e3e5135377a08bf9aab55bc0fd7c1179cd4fb995d2a5159c33846040516107ff92919061163f565b60405180910390a16001915050919050565b60008060008373ffffffffffffffffffffffffffffffffffffffff1673ffffffffffffffffffffffffffffffffffffffff168152602001908152602001600020549050919050565b600560009054906101000a900473ffffffffffffffffffffffffffffffffffffffff1681565b60606004805461088e90611935565b80601f01602080910402602001604051908101604052809291908181526020018280546108ba90611935565b80156109075780601f106108dc57610100808354040283529160200191610907565b820191906000526020600020905b8154815290600101906020018083116108ea57829003601f168201915b5050505050905090565b60008060016000610920610d02565b73ffffffffffffffffffffffffffffffffffffffff1673ffffffffffffffffffffffffffffffffffffffff16815260200190815260200160002060008573ffffffffffffffffffffffffffffffffffffffff1673ffffffffffffffffffffffffffffffffffffffff168152602001908152602001600020549050828110156109dd576040517f08c379a00000000000000000000000000000000000000000000000000000000081526004016109d4906117c5565b60405180910390fd5b6109f16109e8610d02565b85858403610d0a565b600191505092915050565b6000610a10610a09610d02565b8484610ed5565b6001905092915050565b60003373ffffffffffffffffffffffffffffffffffffffff16600560009054906101000a900473ffffffffffffffffffffffffffffffffffffffff1673ffffffffffffffffffffffffffffffffffffffff1614610aac576040517f08c379a0000000000000000000000000000000000000000000000000000000008152600401610aa3906116c5565b60405180910390fd5b81600073ffffffffffffffffffffffffffffffffffffffff168173ffffffffffffffffffffffffffffffffffffffff161415610b1d576040517f08c379a0000000000000000000000000000000000000000000000000000000008152600401610b1490611745565b60405180910390fd5b610b26836112b6565b7f3b0007eb941cf645526cbb3a4fdaecda9d28ce4843167d9263b536a1f1edc0f63384604051610b5792919061163f565b60405180910390a16001915050919050565b60003373ffffffffffffffffffffffffffffffffffffffff16600560009054906101000a900473ffffffffffffffffffffffffffffffffffffffff1673ffffffffffffffffffffffffffffffffffffffff1614610bfb576040517f08c379a0000000000000000000000000000000000000000000000000000000008152600401610bf2906116c5565b60405180910390fd5b6000600560006101000a81548173ffffffffffffffffffffffffffffffffffffffff021916908373ffffffffffffffffffffffffffffffffffffffff1602179055507f32c346b3c4ea71856e1bc1250e3fe1e28e38ade8ec8b1bb2fde56ee07a5d3e9d33604051610c6c9190611624565b60405180910390a16001905090565b6000600160008473ffffffffffffffffffffffffffffffffffffffff1673ffffffffffffffffffffffffffffffffffffffff16815260200190815260200160002060008373ffffffffffffffffffffffffffffffffffffffff1673ffffffffffffffffffffffffffffffffffffffff16815260200190815260200160002054905092915050565b600033905090565b600073ffffffffffffffffffffffffffffffffffffffff168373ffffffffffffffffffffffffffffffffffffffff161415610d7a576040517f08c379a0000000000000000000000000000000000000000000000000000000008152600401610d71906117a5565b60405180910390fd5b600073ffffffffffffffffffffffffffffffffffffffff168273ffffffffffffffffffffffffffffffffffffffff161415610dea576040517f08c379a0000000000000000000000000000000000000000000000000000000008152600401610de1906116e5565b60405180910390fd5b80600160008573ffffffffffffffffffffffffffffffffffffffff1673ffffffffffffffffffffffffffffffffffffffff16815260200190815260200160002060008473ffffffffffffffffffffffffffffffffffffffff1673ffffffffffffffffffffffffffffffffffffffff168152602001908152602001600020819055508173ffffffffffffffffffffffffffffffffffffffff168373ffffffffffffffffffffffffffffffffffffffff167f8c5be1e5ebec7d5bd14f71427d1e84f3dd0314c0f7b2291e5b200ac8c7c3b92583604051610ec89190611805565b60405180910390a3505050565b600073ffffffffffffffffffffffffffffffffffffffff168373ffffffffffffffffffffffffffffffffffffffff161415610f45576040517f08c379a0000000000000000000000000000000000000000000000000000000008152600401610f3c90611785565b60405180910390fd5b600073ffffffffffffffffffffffffffffffffffffffff168273ffffffffffffffffffffffffffffffffffffffff161415610fb5576040517f08c379a0000000000000000000000000000000000000000000000000000000008152600401610fac906116a5565b60405180910390fd5b610fc08383836112fa565b60008060008573ffffffffffffffffffffffffffffffffffffffff1673ffffffffffffffffffffffffffffffffffffffff16815260200190815260200160002054905081811015611046576040517f08c379a000000000000000000000000000000000000000000000000000000000815260040161103d90611725565b60405180910390fd5b8181036000808673ffffffffffffffffffffffffffffffffffffffff1673ffffffffffffffffffffffffffffffffffffffff16815260200190815260200160002081905550816000808573ffffffffffffffffffffffffffffffffffffffff1673ffffffffffffffffffffffffffffffffffffffff16815260200190815260200160002060008282546110d99190611857565b925050819055508273ffffffffffffffffffffffffffffffffffffffff168473ffffffffffffffffffffffffffffffffffffffff167fddf252ad1be2c89b69c2b068fc378daa952ba7f163c4a11628f55a4df523b3ef8460405161113d9190611805565b60405180910390a36111508484846112ff565b50505050565b600073ffffffffffffffffffffffffffffffffffffffff168273ffffffffffffffffffffffffffffffffffffffff1614156111c6576040517f08c379a00000000000000000000000000000000000000000000000000000000081526004016111bd906117e5565b60405180910390fd5b6111d2600083836112fa565b80600260008282546111e49190611857565b92505081905550806000808473ffffffffffffffffffffffffffffffffffffffff1673ffffffffffffffffffffffffffffffffffffffff16815260200190815260200160002060008282546112399190611857565b925050819055508173ffffffffffffffffffffffffffffffffffffffff16600073ffffffffffffffffffffffffffffffffffffffff167fddf252ad1be2c89b69c2b068fc378daa952ba7f163c4a11628f55a4df523b3ef8360405161129e9190611805565b60405180910390a36112b2600083836112ff565b5050565b80600660006101000a81548173ffffffffffffffffffffffffffffffffffffffff021916908373ffffffffffffffffffffffffffffffffffffffff16021790555050565b505050565b505050565b60008135905061131381611cf4565b92915050565b60008135905061132881611d0b565b92915050565b600060208284031215611344576113436119c5565b5b600061135284828501611304565b91505092915050565b60008060408385031215611372576113716119c5565b5b600061138085828601611304565b925050602061139185828601611304565b9150509250929050565b6000806000606084860312156113b4576113b36119c5565b5b60006113c286828701611304565b93505060206113d386828701611304565b92505060406113e486828701611319565b9150509250925092565b60008060408385031215611405576114046119c5565b5b600061141385828601611304565b925050602061142485828601611319565b9150509250929050565b611437816118ad565b82525050565b611446816118bf565b82525050565b60006114578261183b565b6114618185611846565b9350611471818560208601611902565b61147a816119ca565b840191505092915050565b6000611492602383611846565b915061149d826119db565b604082019050919050565b60006114b5602683611846565b91506114c082611a2a565b604082019050919050565b60006114d8602283611846565b91506114e382611a79565b604082019050919050565b60006114fb602483611846565b915061150682611ac8565b604082019050919050565b600061151e602683611846565b915061152982611b17565b604082019050919050565b6000611541601983611846565b915061154c82611b66565b602082019050919050565b6000611564602883611846565b915061156f82611b8f565b604082019050919050565b6000611587602583611846565b915061159282611bde565b604082019050919050565b60006115aa602483611846565b91506115b582611c2d565b604082019050919050565b60006115cd602583611846565b91506115d882611c7c565b604082019050919050565b60006115f0601f83611846565b91506115fb82611ccb565b602082019050919050565b61160f816118eb565b82525050565b61161e816118f5565b82525050565b6000602082019050611639600083018461142e565b92915050565b6000604082019050611654600083018561142e565b611661602083018461142e565b9392505050565b600060208201905061167d600083018461143d565b92915050565b6000602082019050818103600083015261169d818461144c565b905092915050565b600060208201905081810360008301526116be81611485565b9050919050565b600060208201905081810360008301526116de816114a8565b9050919050565b600060208201905081810360008301526116fe816114cb565b9050919050565b6000602082019050818103600083015261171e816114ee565b9050919050565b6000602082019050818103600083015261173e81611511565b9050919050565b6000602082019050818103600083015261175e81611534565b9050919050565b6000602082019050818103600083015261177e81611557565b9050919050565b6000602082019050818103600083015261179e8161157a565b9050919050565b600060208201905081810360008301526117be8161159d565b9050919050565b600060208201905081810360008301526117de816115c0565b9050919050565b600060208201905081810360008301526117fe816115e3565b9050919050565b600060208201905061181a6000830184611606565b92915050565b60006020820190506118356000830184611615565b92915050565b600081519050919050565b600082825260208201905092915050565b6000611862826118eb565b915061186d836118eb565b9250827fffffffffffffffffffffffffffffffffffffffffffffffffffffffffffffffff038211156118a2576118a1611967565b5b828201905092915050565b60006118b8826118cb565b9050919050565b60008115159050919050565b600073ffffffffffffffffffffffffffffffffffffffff82169050919050565b6000819050919050565b600060ff82169050919050565b60005b83811015611920578082015181840152602081019050611905565b8381111561192f576000848401525b50505050565b6000600282049050600182168061194d57607f821691505b6020821081141561196157611960611996565b5b50919050565b7f4e487b7100000000000000000000000000000000000000000000000000000000600052601160045260246000fd5b7f4e487b7100000000000000000000000000000000000000000000000000000000600052602260045260246000fd5b600080fd5b6000601f19601f8301169050919050565b7f45524332303a207472616e7366657220746f20746865207a65726f206164647260008201527f6573730000000000000000000000000000000000000000000000000000000000602082015250565b7f4f6e6c7920746865206f776e65722063616e2063616c6c20746869732066756e60008201527f6374696f6e210000000000000000000000000000000000000000000000000000602082015250565b7f45524332303a20617070726f766520746f20746865207a65726f20616464726560008201527f7373000000000000000000000000000000000000000000000000000000000000602082015250565b7f4572726f7221204d73672e73656e646572206d75737420626520746865206d6960008201527f6e74657200000000000000000000000000000000000000000000000000000000602082015250565b7f45524332303a207472616e7366657220616d6f756e742065786365656473206260008201527f616c616e63650000000000000000000000000000000000000000000000000000602082015250565b7f43616e206e6f7420757365207a65726f20616464726573732100000000000000600082015250565b7f45524332303a207472616e7366657220616d6f756e742065786365656473206160008201527f6c6c6f77616e6365000000000000000000000000000000000000000000000000602082015250565b7f45524332303a207472616e736665722066726f6d20746865207a65726f20616460008201527f6472657373000000000000000000000000000000000000000000000000000000602082015250565b7f45524332303a20617070726f76652066726f6d20746865207a65726f2061646460008201527f7265737300000000000000000000000000000000000000000000000000000000602082015250565b7f45524332303a2064656372656173656420616c6c6f77616e63652062656c6f7760008201527f207a65726f000000000000000000000000000000000000000000000000000000602082015250565b7f45524332303a206d696e7420746f20746865207a65726f206164647265737300600082015250565b611cfd816118ad565b8114611d0857600080fd5b50565b611d14816118eb565b8114611d1f57600080fd5b5056fea2646970667358221220f727b775a24dc97d02c5da2ce73a32816bd7720a82c308d93ff5a3a42aeedf5564736f6c63430008060033",
  "immutableReferences": {},
  "source": "// SPDX-License-Identifier: MIT\npragma solidity ^0.8.0;\n\nimport \"@openzeppelin/contracts/token/ERC20/ERC20.sol\";\nimport \"./interfaces/IDAppToken.sol\";\n\n/**@title  DappToken\n * @notice This token has an owner and a minter.\n *         By default, the owner & minter account will be the one that deploys the contract.\n */\ncontract DAppToken is ERC20, IDAppToken {\n    // ---------------------------------------------------------------------------------------- //\n    // ************************************ State Variables *********************************** //\n    // ---------------------------------------------------------------------------------------- //\n\n    address public owner;\n    address minter;\n\n    // ---------------------------------------------------------------------------------------- //\n    // ************************************** Constructor ************************************* //\n    // ---------------------------------------------------------------------------------------- //\n\n    constructor() ERC20(\"DAppToken\", \"DAP\") {\n        owner = msg.sender;\n        minter = msg.sender;\n    }\n\n    // ---------------------------------------------------------------------------------------- //\n    // *************************************** Modifiers ************************************** //\n    // ---------------------------------------------------------------------------------------- //\n\n    /// @notice Only the owner can call some functions.\n    modifier onlyOwner() {\n        require(owner == msg.sender, \"Only the owner can call this function!\");\n        _;\n    }\n\n    /// @notice Can not set some addresses to zero.\n    modifier isValidAddress(address _address) {\n        require(_address != address(0), \"Can not use zero address!\");\n        _;\n    }\n\n    // ---------------------------------------------------------------------------------------- //\n    // ******************************* External/Public Functions ****************************** //\n    // ---------------------------------------------------------------------------------------- //\n\n    /**\n     * @notice Pass the minter role to a new address, only the owner can change the minter !!!\n     * @param _newMinter: New minter's address\n     * @return Whether the minter has been changed\n     */\n    function passMinterRole(address _newMinter)\n        public\n        override\n        onlyOwner\n        isValidAddress(_newMinter)\n        returns (bool)\n    {\n        _setMinter(_newMinter);\n\n        emit MinterChanged(msg.sender, _newMinter);\n        return true;\n    }\n\n    /**\n     * @notice Pass the owner role to a new address, only the owner can change the owner !!!\n     * @param _newOwner: New owner's address\n     * @return Whether the owner has been changed\n     */\n    function passOwnership(address _newOwner)\n        public\n        override\n        onlyOwner\n        isValidAddress(_newOwner)\n        returns (bool)\n    {\n        owner = _newOwner;\n\n        emit OwnerChanged(msg.sender, _newOwner);\n        return true;\n    }\n\n    /**\n     * @notice Release the ownership to zero address, can never get back !!!\n     * @return Whether the ownership has been released\n     */\n    function releaseOwnership() public override onlyOwner returns (bool) {\n        owner = address(0);\n\n        emit OwnershipReleased(msg.sender);\n        return true;\n    }\n\n    /**\n     * @notice Mint tokens\n     * @param _account: Receiver's address\n     * @param _amount: Amount to be minted\n     */\n    function mint(address _account, uint256 _amount) public override {\n        require(msg.sender == minter, \"Error! Msg.sender must be the minter\");\n\n        _mint(_account, _amount); // ERC20 method with an event\n    }\n\n    // ---------------------------------------------------------------------------------------- //\n    // *********************************** Internal Functions ********************************* //\n    // ---------------------------------------------------------------------------------------- //\n\n    function _setMinter(address _newMinter) internal {\n        minter = _newMinter;\n    }\n}\n",
  "sourcePath": "D:\\src\\defi_t\\defi_tutorial\\src\\contracts\\DappToken.sol",
  "compiler": {
    "name": "solc",
    "version": "0.8.6+commit.11564f7e.Emscripten.clang"
  },
  "schemaVersion": "3.4.3",
  "updatedAt": "2021-10-29T18:56:01.615Z",
  "networkType": "ethereum",
  "devdoc": {
    "kind": "dev",
    "methods": {
      "allowance(address,address)": {
        "details": "See {IERC20-allowance}."
      },
      "approve(address,uint256)": {
        "details": "See {IERC20-approve}. Requirements: - `spender` cannot be the zero address."
      },
      "balanceOf(address)": {
        "details": "See {IERC20-balanceOf}."
      },
      "decimals()": {
        "details": "Returns the number of decimals used to get its user representation. For example, if `decimals` equals `2`, a balance of `505` tokens should be displayed to a user as `5.05` (`505 / 10 ** 2`). Tokens usually opt for a value of 18, imitating the relationship between Ether and Wei. This is the value {ERC20} uses, unless this function is overridden; NOTE: This information is only used for _display_ purposes: it in no way affects any of the arithmetic of the contract, including {IERC20-balanceOf} and {IERC20-transfer}."
      },
      "decreaseAllowance(address,uint256)": {
        "details": "Atomically decreases the allowance granted to `spender` by the caller. This is an alternative to {approve} that can be used as a mitigation for problems described in {IERC20-approve}. Emits an {Approval} event indicating the updated allowance. Requirements: - `spender` cannot be the zero address. - `spender` must have allowance for the caller of at least `subtractedValue`."
      },
      "increaseAllowance(address,uint256)": {
        "details": "Atomically increases the allowance granted to `spender` by the caller. This is an alternative to {approve} that can be used as a mitigation for problems described in {IERC20-approve}. Emits an {Approval} event indicating the updated allowance. Requirements: - `spender` cannot be the zero address."
      },
      "mint(address,uint256)": {
        "params": {
          "_account": ": Receiver's address",
          "_amount": ": Amount to be minted"
        }
      },
      "name()": {
        "details": "Returns the name of the token."
      },
      "passMinterRole(address)": {
        "params": {
          "_newMinter": ": New minter's address"
        },
        "returns": {
          "_0": "Whether the minter has been changed"
        }
      },
      "passOwnership(address)": {
        "params": {
          "_newOwner": ": New owner's address"
        },
        "returns": {
          "_0": "Whether the owner has been changed"
        }
      },
      "releaseOwnership()": {
        "returns": {
          "_0": "Whether the ownership has been released"
        }
      },
      "symbol()": {
        "details": "Returns the symbol of the token, usually a shorter version of the name."
      },
      "totalSupply()": {
        "details": "See {IERC20-totalSupply}."
      },
      "transfer(address,uint256)": {
        "details": "See {IERC20-transfer}. Requirements: - `recipient` cannot be the zero address. - the caller must have a balance of at least `amount`."
      },
      "transferFrom(address,address,uint256)": {
        "details": "See {IERC20-transferFrom}. Emits an {Approval} event indicating the updated allowance. This is not required by the EIP. See the note at the beginning of {ERC20}. Requirements: - `sender` and `recipient` cannot be the zero address. - `sender` must have a balance of at least `amount`. - the caller must have allowance for ``sender``'s tokens of at least `amount`."
      }
    },
    "title": "DappToken",
    "version": 1
  },
  "userdoc": {
    "kind": "user",
    "methods": {
      "mint(address,uint256)": {
        "notice": "Mint tokens"
      },
      "passMinterRole(address)": {
        "notice": "Pass the minter role to a new address, only the owner can change the minter !!!"
      },
      "passOwnership(address)": {
        "notice": "Pass the owner role to a new address, only the owner can change the owner !!!"
      },
      "releaseOwnership()": {
        "notice": "Release the ownership to zero address, can never get back !!!"
      }
    },
    "notice": "This token has an owner and a minter.         By default, the owner & minter account will be the one that deploys the contract.",
    "version": 1
  }
}