{
  "contractName": "TokenFarm",
  "abi": [
    {
      "inputs": [
        {
          "internalType": "address",
          "name": "_dappToken",
          "type": "address"
        },
        {
          "internalType": "address",
          "name": "_mockUSD",
          "type": "address"
        }
      ],
      "stateMutability": "nonpayable",
      "type": "constructor"
    },
    {
      "inputs": [],
      "name": "dappToken",
      "outputs": [
        {
          "internalType": "contract IDAppToken",
          "name": "",
          "type": "address"
        }
      ],
      "stateMutability": "view",
      "type": "function",
      "constant": true
    },
    {
      "inputs": [
        {
          "internalType": "address",
          "name": "",
          "type": "address"
        }
      ],
      "name": "hasStaked",
      "outputs": [
        {
          "internalType": "bool",
          "name": "",
          "type": "bool"
        }
      ],
      "stateMutability": "view",
      "type": "function",
      "constant": true
    },
    {
      "inputs": [
        {
          "internalType": "address",
          "name": "",
          "type": "address"
        }
      ],
      "name": "isStaking",
      "outputs": [
        {
          "internalType": "bool",
          "name": "",
          "type": "bool"
        }
      ],
      "stateMutability": "view",
      "type": "function",
      "constant": true
    },
    {
      "inputs": [],
      "name": "mockUSD",
      "outputs": [
        {
          "internalType": "contract IERC20",
          "name": "",
          "type": "address"
        }
      ],
      "stateMutability": "view",
      "type": "function",
      "constant": true
    },
    {
      "inputs": [],
      "name": "name",
      "outputs": [
        {
          "internalType": "string",
          "name": "",
          "type": "string"
        }
      ],
      "stateMutability": "view",
      "type": "function",
      "constant": true
    },
    {
      "inputs": [],
      "name": "owner",
      "outputs": [
        {
          "internalType": "address",
          "name": "",
          "type": "address"
        }
      ],
      "stateMutability": "view",
      "type": "function",
      "constant": true
    },
    {
      "inputs": [],
      "name": "rewardPerSecond",
      "outputs": [
        {
          "internalType": "uint256",
          "name": "",
          "type": "uint256"
        }
      ],
      "stateMutability": "view",
      "type": "function",
      "constant": true
    },
    {
      "inputs": [
        {
          "internalType": "uint256",
          "name": "",
          "type": "uint256"
        }
      ],
      "name": "stakers",
      "outputs": [
        {
          "internalType": "address",
          "name": "",
          "type": "address"
        }
      ],
      "stateMutability": "view",
      "type": "function",
      "constant": true
    },
    {
      "inputs": [
        {
          "internalType": "address",
          "name": "",
          "type": "address"
        }
      ],
      "name": "userInfo",
      "outputs": [
        {
          "internalType": "uint256",
          "name": "lastRewardTime",
          "type": "uint256"
        },
        {
          "internalType": "uint256",
          "name": "stakingBalance",
          "type": "uint256"
        }
      ],
      "stateMutability": "view",
      "type": "function",
      "constant": true
    },
    {
      "inputs": [
        {
          "internalType": "address",
          "name": "_userAddress",
          "type": "address"
        }
      ],
      "name": "getStakingBalance",
      "outputs": [
        {
          "internalType": "uint256",
          "name": "",
          "type": "uint256"
        }
      ],
      "stateMutability": "view",
      "type": "function",
      "constant": true
    },
    {
      "inputs": [
        {
          "internalType": "uint256",
          "name": "_amount",
          "type": "uint256"
        }
      ],
      "name": "stake",
      "outputs": [],
      "stateMutability": "nonpayable",
      "type": "function"
    },
    {
      "inputs": [],
      "name": "unstake",
      "outputs": [],
      "stateMutability": "nonpayable",
      "type": "function"
    },
    {
      "inputs": [],
      "name": "issueTokens",
      "outputs": [],
      "stateMutability": "nonpayable",
      "type": "function"
    }
  ],
  "bytecode": "0x60806040526040518060400160405280600f81526020017f4461707020546f6b656e204661726d000000000000000000000000000000000081525060009080519060200190620000519291906200015c565b5067016345785d8a00006002553480156200006b57600080fd5b506040516200167b3803806200167b833981810160405281019062000091919062000223565b81600760006101000a81548173ffffffffffffffffffffffffffffffffffffffff021916908373ffffffffffffffffffffffffffffffffffffffff16021790555080600860006101000a81548173ffffffffffffffffffffffffffffffffffffffff021916908373ffffffffffffffffffffffffffffffffffffffff16021790555033600160006101000a81548173ffffffffffffffffffffffffffffffffffffffff021916908373ffffffffffffffffffffffffffffffffffffffff160217905550505062000322565b8280546200016a906200029e565b90600052602060002090601f0160209004810192826200018e5760008555620001da565b82601f10620001a957805160ff1916838001178555620001da565b82800160010185558215620001da579182015b82811115620001d9578251825591602001919060010190620001bc565b5b509050620001e99190620001ed565b5090565b5b8082111562000208576000816000905550600101620001ee565b5090565b6000815190506200021d8162000308565b92915050565b600080604083850312156200023d576200023c62000303565b5b60006200024d858286016200020c565b925050602062000260858286016200020c565b9150509250929050565b600062000277826200027e565b9050919050565b600073ffffffffffffffffffffffffffffffffffffffff82169050919050565b60006002820490506001821680620002b757607f821691505b60208210811415620002ce57620002cd620002d4565b5b50919050565b7f4e487b7100000000000000000000000000000000000000000000000000000000600052602260045260246000fd5b600080fd5b62000313816200026a565b81146200031f57600080fd5b50565b61134980620003326000396000f3fe608060405234801561001057600080fd5b50600436106100cf5760003560e01c80638da5cb5b1161008c578063b04ef9c211610066578063b04ef9c2146101dd578063c93c8f341461020d578063f1a7ac9f1461023d578063fd5e6dd11461025b576100cf565b80638da5cb5b146101855780638f10369a146101a3578063a694fc3a146101c1576100cf565b806306fdde03146100d45780631959a002146100f25780632def6620146101235780635eb186f81461012d57806360ab58521461014b5780636f49712b14610155575b600080fd5b6100dc61028b565b6040516100e99190610e86565b60405180910390f35b61010c60048036038101906101079190610c46565b610319565b60405161011a929190610f23565b60405180910390f35b61012b61033d565b005b61013561051a565b6040516101429190610e50565b60405180910390f35b610153610540565b005b61016f600480360381019061016a9190610c46565b6107a1565b60405161017c9190610e35565b60405180910390f35b61018d6107c1565b60405161019a9190610dba565b60405180910390f35b6101ab6107e7565b6040516101b89190610f08565b60405180910390f35b6101db60048036038101906101d69190610ca0565b6107ed565b005b6101f760048036038101906101f29190610c46565b610b36565b6040516102049190610f08565b60405180910390f35b61022760048036038101906102229190610c46565b610b82565b6040516102349190610e35565b60405180910390f35b610245610ba2565b6040516102529190610e6b565b60405180910390f35b61027560048036038101906102709190610ca0565b610bc8565b6040516102829190610dba565b60405180910390f35b600080546102989061110f565b80601f01602080910402602001604051908101604052809291908181526020018280546102c49061110f565b80156103115780601f106102e657610100808354040283529160200191610311565b820191906000526020600020905b8154815290600101906020018083116102f457829003601f168201915b505050505081565b60036020528060005260406000206000915090508060000154908060010154905082565b6000600360003373ffffffffffffffffffffffffffffffffffffffff1673ffffffffffffffffffffffffffffffffffffffff168152602001908152602001600020600101549050600081116103c7576040517f08c379a00000000000000000000000000000000000000000000000000000000081526004016103be90610ec8565b60405180910390fd5b600860009054906101000a900473ffffffffffffffffffffffffffffffffffffffff1673ffffffffffffffffffffffffffffffffffffffff1663a9059cbb33836040518363ffffffff1660e01b8152600401610424929190610e0c565b602060405180830381600087803b15801561043e57600080fd5b505af1158015610452573d6000803e3d6000fd5b505050506040513d601f19601f820116820180604052508101906104769190610c73565b506000600360003373ffffffffffffffffffffffffffffffffffffffff1673ffffffffffffffffffffffffffffffffffffffff168152602001908152602001600020600101819055506000600660003373ffffffffffffffffffffffffffffffffffffffff1673ffffffffffffffffffffffffffffffffffffffff16815260200190815260200160002060006101000a81548160ff02191690831515021790555050565b600760009054906101000a900473ffffffffffffffffffffffffffffffffffffffff1681565b600160009054906101000a900473ffffffffffffffffffffffffffffffffffffffff1673ffffffffffffffffffffffffffffffffffffffff163373ffffffffffffffffffffffffffffffffffffffff16146105d0576040517f08c379a00000000000000000000000000000000000000000000000000000000081526004016105c790610ea8565b60405180910390fd5b60005b60048054905081101561079e576000600482815481106105f6576105f56111e8565b5b9060005260206000200160009054906101000a900473ffffffffffffffffffffffffffffffffffffffff1690506000600360008373ffffffffffffffffffffffffffffffffffffffff1673ffffffffffffffffffffffffffffffffffffffff16815260200190815260200160002060000154426106739190611018565b90506000816002546106859190610fbe565b9050600081111561074157600760009054906101000a900473ffffffffffffffffffffffffffffffffffffffff1673ffffffffffffffffffffffffffffffffffffffff1663a9059cbb84836040518363ffffffff1660e01b81526004016106ed929190610e0c565b602060405180830381600087803b15801561070757600080fd5b505af115801561071b573d6000803e3d6000fd5b505050506040513d601f19601f8201168201806040525081019061073f9190610c73565b505b42600360008573ffffffffffffffffffffffffffffffffffffffff1673ffffffffffffffffffffffffffffffffffffffff16815260200190815260200160002060000181905550505050808061079690611141565b9150506105d3565b50565b60066020528060005260406000206000915054906101000a900460ff1681565b600160009054906101000a900473ffffffffffffffffffffffffffffffffffffffff1681565b60025481565b60008111610830576040517f08c379a000000000000000000000000000000000000000000000000000000000815260040161082790610ee8565b60405180910390fd5b600860009054906101000a900473ffffffffffffffffffffffffffffffffffffffff1673ffffffffffffffffffffffffffffffffffffffff166323b872dd3330846040518463ffffffff1660e01b815260040161088f93929190610dd5565b602060405180830381600087803b1580156108a957600080fd5b505af11580156108bd573d6000803e3d6000fd5b505050506040513d601f19601f820116820180604052508101906108e19190610c73565b5080600360003373ffffffffffffffffffffffffffffffffffffffff1673ffffffffffffffffffffffffffffffffffffffff16815260200190815260200160002060010160008282546109349190610f68565b925050819055506000600360003373ffffffffffffffffffffffffffffffffffffffff1673ffffffffffffffffffffffffffffffffffffffff1681526020019081526020016000206000015414156109ce5742600360003373ffffffffffffffffffffffffffffffffffffffff1673ffffffffffffffffffffffffffffffffffffffff168152602001908152602001600020600001819055505b600560003373ffffffffffffffffffffffffffffffffffffffff1673ffffffffffffffffffffffffffffffffffffffff16815260200190815260200160002060009054906101000a900460ff16610a83576004339080600181540180825580915050600190039060005260206000200160009091909190916101000a81548173ffffffffffffffffffffffffffffffffffffffff021916908373ffffffffffffffffffffffffffffffffffffffff1602179055505b6001600660003373ffffffffffffffffffffffffffffffffffffffff1673ffffffffffffffffffffffffffffffffffffffff16815260200190815260200160002060006101000a81548160ff0219169083151502179055506001600560003373ffffffffffffffffffffffffffffffffffffffff1673ffffffffffffffffffffffffffffffffffffffff16815260200190815260200160002060006101000a81548160ff02191690831515021790555050565b6000600360008373ffffffffffffffffffffffffffffffffffffffff1673ffffffffffffffffffffffffffffffffffffffff168152602001908152602001600020600101549050919050565b60056020528060005260406000206000915054906101000a900460ff1681565b600860009054906101000a900473ffffffffffffffffffffffffffffffffffffffff1681565b60048181548110610bd857600080fd5b906000526020600020016000915054906101000a900473ffffffffffffffffffffffffffffffffffffffff1681565b600081359050610c16816112ce565b92915050565b600081519050610c2b816112e5565b92915050565b600081359050610c40816112fc565b92915050565b600060208284031215610c5c57610c5b611217565b5b6000610c6a84828501610c07565b91505092915050565b600060208284031215610c8957610c88611217565b5b6000610c9784828501610c1c565b91505092915050565b600060208284031215610cb657610cb5611217565b5b6000610cc484828501610c31565b91505092915050565b610cd68161104c565b82525050565b610ce58161105e565b82525050565b610cf481611094565b82525050565b610d03816110b8565b82525050565b6000610d1482610f4c565b610d1e8185610f57565b9350610d2e8185602086016110dc565b610d378161121c565b840191505092915050565b6000610d4f602583610f57565b9150610d5a8261122d565b604082019050919050565b6000610d72601b83610f57565b9150610d7d8261127c565b602082019050919050565b6000610d95601283610f57565b9150610da0826112a5565b602082019050919050565b610db48161108a565b82525050565b6000602082019050610dcf6000830184610ccd565b92915050565b6000606082019050610dea6000830186610ccd565b610df76020830185610ccd565b610e046040830184610dab565b949350505050565b6000604082019050610e216000830185610ccd565b610e2e6020830184610dab565b9392505050565b6000602082019050610e4a6000830184610cdc565b92915050565b6000602082019050610e656000830184610ceb565b92915050565b6000602082019050610e806000830184610cfa565b92915050565b60006020820190508181036000830152610ea08184610d09565b905092915050565b60006020820190508181036000830152610ec181610d42565b9050919050565b60006020820190508181036000830152610ee181610d65565b9050919050565b60006020820190508181036000830152610f0181610d88565b9050919050565b6000602082019050610f1d6000830184610dab565b92915050565b6000604082019050610f386000830185610dab565b610f456020830184610dab565b9392505050565b600081519050919050565b600082825260208201905092915050565b6000610f738261108a565b9150610f7e8361108a565b9250827fffffffffffffffffffffffffffffffffffffffffffffffffffffffffffffffff03821115610fb357610fb261118a565b5b828201905092915050565b6000610fc98261108a565b9150610fd48361108a565b9250817fffffffffffffffffffffffffffffffffffffffffffffffffffffffffffffffff048311821515161561100d5761100c61118a565b5b828202905092915050565b60006110238261108a565b915061102e8361108a565b9250828210156110415761104061118a565b5b828203905092915050565b60006110578261106a565b9050919050565b60008115159050919050565b600073ffffffffffffffffffffffffffffffffffffffff82169050919050565b6000819050919050565b600061109f826110a6565b9050919050565b60006110b18261106a565b9050919050565b60006110c3826110ca565b9050919050565b60006110d58261106a565b9050919050565b60005b838110156110fa5780820151818401526020810190506110df565b83811115611109576000848401525b50505050565b6000600282049050600182168061112757607f821691505b6020821081141561113b5761113a6111b9565b5b50919050565b600061114c8261108a565b91507fffffffffffffffffffffffffffffffffffffffffffffffffffffffffffffffff82141561117f5761117e61118a565b5b600182019050919050565b7f4e487b7100000000000000000000000000000000000000000000000000000000600052601160045260246000fd5b7f4e487b7100000000000000000000000000000000000000000000000000000000600052602260045260246000fd5b7f4e487b7100000000000000000000000000000000000000000000000000000000600052603260045260246000fd5b600080fd5b6000601f19601f8301169050919050565b7f4f6e6c7920746865206f776e65722063616e2063616c6c20746869732066756e60008201527f6374696f6e000000000000000000000000000000000000000000000000000000602082015250565b7f7374616b696e672062616c616e63652063616e6e6f7420626520300000000000600082015250565b7f616d6f756e742063616e6e6f7420626520300000000000000000000000000000600082015250565b6112d78161104c565b81146112e257600080fd5b50565b6112ee8161105e565b81146112f957600080fd5b50565b6113058161108a565b811461131057600080fd5b5056fea264697066735822122042dcde55dc13fd7f340d6d5553a6ce8667a62f85278469ae1cb69f8b44ff279f64736f6c63430008060033",
  "immutableReferences": {},
  "source": "// SPDX-License-Identifier: MIT\npragma solidity ^0.8.0;\n\nimport \"./DappToken.sol\";\nimport \"./interfaces/IDAppToken.sol\";\nimport \"@openzeppelin/contracts/token/ERC20/IERC20.sol\";\n\ncontract TokenFarm {\n    string public name = \"Dapp Token Farm\";\n    address public owner;\n    uint256 public rewardPerSecond = 1e17;\n\n    /// @notice Complex variables\n    struct UserInfo {\n        uint256 lastRewardTime;\n        uint256 stakingBalance;\n    }\n    mapping(address => UserInfo) public userInfo;\n\n    address[] public stakers;\n    mapping(address => bool) public hasStaked;\n    mapping(address => bool) public isStaking;\n\n    /// @notice Contract interfaces that need interaction.\n    IDAppToken public dappToken;\n    IERC20 public mockUSD;\n\n    constructor(address _dappToken, address _mockUSD) {\n        dappToken = IDAppToken(_dappToken);\n        mockUSD = IERC20(_mockUSD);\n        owner = msg.sender;\n    }\n\n    modifier onlyOwner() {\n        require(msg.sender == owner, \"Only the owner can call this function\");\n        _;\n    }\n\n    function getStakingBalance(address _userAddress)\n        public\n        view\n        returns (uint256)\n    {\n        return userInfo[_userAddress].stakingBalance;\n    }\n\n    function stake(uint256 _amount) public {\n        // Require amount greater than 0\n        require(_amount > 0, \"amount cannot be 0\");\n\n        // Trasnfer Mock USD tokens to this contract for staking\n        mockUSD.transferFrom(msg.sender, address(this), _amount);\n\n        // Update staking balance\n        userInfo[msg.sender].stakingBalance += _amount;\n\n        // Update lastRewardTime\n        if (userInfo[msg.sender].lastRewardTime == 0) {\n            userInfo[msg.sender].lastRewardTime = block.timestamp;\n        }\n\n        // Add user to stakers array *only* if they haven't staked already\n        if (!hasStaked[msg.sender]) {\n            stakers.push(msg.sender);\n        }\n\n        // Update staking status\n        isStaking[msg.sender] = true;\n        hasStaked[msg.sender] = true;\n    }\n\n    function unstake() public {\n        // Fetch staking balance\n        uint256 balance = userInfo[msg.sender].stakingBalance;\n\n        // Require amount greater than 0\n        require(balance > 0, \"staking balance cannot be 0\");\n\n        // Transfer Mock Dai tokens to this contract for staking\n        mockUSD.transfer(msg.sender, balance);\n\n        // Reset staking balance\n        userInfo[msg.sender].stakingBalance = 0;\n\n        // Update staking status\n        isStaking[msg.sender] = false;\n    }\n\n    // Issuing Tokens\n    function issueTokens() public onlyOwner {\n        // Issue tokens to all stakers\n        for (uint256 i = 0; i < stakers.length; i++) {\n            address recipient = stakers[i];\n            uint256 timeLength = block.timestamp -\n                userInfo[recipient].lastRewardTime;\n            uint256 pendingReward = rewardPerSecond * timeLength;\n            if (pendingReward > 0) {\n                dappToken.transfer(recipient, pendingReward);\n            }\n            userInfo[recipient].lastRewardTime = block.timestamp;\n        }\n    }\n}\n",
  "sourcePath": "D:\\src\\defi_t\\defi_tutorial\\src\\contracts\\TokenFarm.sol",
  "compiler": {
    "name": "solc",
    "version": "0.8.6+commit.11564f7e.Emscripten.clang"
  },
  "schemaVersion": "3.4.3",
  "updatedAt": "2021-10-28T18:43:33.440Z",
  "networkType": "ethereum",
  "devdoc": {
    "kind": "dev",
    "methods": {},
    "version": 1
  },
  "userdoc": {
    "kind": "user",
    "methods": {
      "dappToken()": {
        "notice": "Contract interfaces that need interaction."
      }
    },
    "version": 1
  }
}